:020000040800F2
:1000000000000120ED070008CD060008CF0600081B
:10001000D1060008D3060008D5060008000000003D
:100020000000000000000000000000003117000880
:10003000D706000800000000D117000815180008B6
:10004000350800083508000835080008350800089C
:10005000350800083508000835080008350800088C
:10006000350800083508000835080008350800087C
:10007000350800083508000835080008350800086C
:10008000350800083508000835080008350800085C
:10009000350800083508000835080008350800084C
:1000A000350800083508000835080008350800083C
:1000B000350800083508000835080008350800082C
:1000C000350800083508000835080008350800081C
:1000D000350800083508000835080008350800080C
:1000E00035080008350800083508000835080008FC
:1000F00035080008350800083508000835080008EC
:1001000035080008350800083508000835080008DB
:100110003508000835080008D90600083508000829
:1001200035080008350800083508000835080008BB
:1001300000000000000000000000000000000000BF
:1001400000000000000000000000000000000000AF
:10015000000000000000000000000000000000009F
:10016000000000000000000000000000000000008F
:10017000000000000000000000000000000000007F
:10018000000000000000000000000000000000006F
:10019000000000000000000000000000000000005F
:1001A000000000000000000000000000000000004F
:1001B000000000000000000000000000000000003F
:1001C000000000000000000000000000000000002F
:1001D000000000000000000000000000000000001F
:0401E0005FF8E0F1F3
:1001F00010B5054C237833B9044B13B10448AFF361
:1002000000800123237010BD500800200000000072
:100210006C36000808B5034B1BB103490348AFF324
:10022000008008BD00000000540800206C36000863
:10023000844641EA000313F0030349D1403A23D333
:100240000B6803604B6843608B688360CB68C36056
:100250000B6903614B6943618B698361CB69C3613E
:100260000B6A03624B6A43628B6A8362CB6AC36226
:100270000B6B03634B6B43638B6B8363CB6BC3630E
:1002800040304031403ADBD230320BD30B68036050
:100290004B6843608B688360CB68C360103010315B
:1002A000103AF3D20C3205D351F8043B40F8043B2A
:1002B000043AF9D2043208D0D2071CBF11F8013B2E
:1002C00000F8013B01D30B8803806046704700BFF4
:1002D000082A13D38B07B1D010F00303AED0C3F1BB
:1002E0000403D21ADB071CBF11F8013B00F8013BE5
:1002F000A4D331F8023B20F8023B9FE7043AD9D35C
:10030000013A11F8013B00F8013BF9D20B78037078
:100310004B7843708B7883706046704708B5054A08
:10032000D36883F48073D3604FF47A7001F038F9A6
:10033000F5E700BF0010014008B5012001F030F9D9
:10034000FBE7000008B5074A0021074801F0B0F8B4
:10035000064B1860064A0021064801F0A9F8064B32
:10036000186008BD983600081D0300086C080020BE
:10037000BC360008390300087008002030B58DB085
:1003800000240A940B940594069407940894099405
:10039000314B9A6942F020029A619A6902F0200278
:1003A0000492049A9A6942F008029A619A6902F0EA
:1003B00008020392039A9A6942F010029A619A69BC
:1003C00002F010020292029A9A6942F004029A61C3
:1003D0009B6903F004030193019B20484FF4407391
:1003E00043611F4B0593012506950223079305A939
:1003F00000F0AEFE1B49CA6822F0F002F02393FA27
:10040000A3F3B3FA83F305FA03F31343CB6020237A
:100410000A938DF82C508DF82D408DF82E500AA897
:1004200000F02CFE1048026842F2200393FAA3F178
:10043000B1FA81F189000F2404FA01F122EA0102E4
:1004400093FAA3F3B3FA83F39B00042101FA03F3B5
:10045000134303600DB030BD001002400010014096
:100460000300030400000140000C014008B50B48E4
:100470000B4B03600B4B436000238360C3604FF45E
:100480008042026143618361C361036200F06AFBE1
:1004900000B908BD00F046F8FBE700BF7408002073
:1004A00000540040801A060010B586B00023029365
:1004B0000393049305930268114B9A4201D006B04E
:1004C00010BD104CA36943F00803A361A36903F0B6
:1004D00008030093009BC02302931223039303237A
:1004E000059302A9084800F01DFAE36943F40013DC
:1004F000E361E36903F400130193019BDFE700BFAD
:100500000054004000100240000C014008B5026891
:10051000034B9A4200D008BD00F0A0F9FBE700BFF2
:100520000010004072B6FEE708B5284A136823F0B1
:10053000070343F002031360244B1B6803F0070317
:10054000022BF9D1224A136843F480331360204B05
:100550001B6813F4003FFAD01D4B1A6842F40022C6
:100560001A605A6822F47C1242F4E8125A601A683F
:1005700042F080721A60164B1B6813F0007FFAD0AD
:10058000134B5A6822F0F0025A605A6822F4E06273
:1005900042F480625A605A6822F460525A605A6883
:1005A00022F0030242F002025A60094B5B6803F03A
:1005B0000C03082BF9D1074800F02CFF0F2000F0A6
:1005C00047F800B908BDFFF7ADFF00BF00200240AB
:1005D0000010024000A24A0408B500F02DF9FFF710
:1005E000A3FFFFF7CBFEFFF741FF00F0A3F800F0F9
:1005F00017FFFFF7A7FE00F035FFFEE700B583B059
:10060000114B9A6942F001029A619A6902F0010263
:100610000092009ADA6942F08052DA61DB6903F0F5
:1006200080530193019B00220F216FF0010000F025
:1006300033F9064A536823F0E06343F000735360D4
:1006400003B05DF804FB00BF001002400000014051
:1006500000B589B001460022362000F01DF9362091
:1006600000F052F9154BDA6942F01002DA61DB69E9
:1006700003F010030193019B02A903A800F066FB9D
:1006800000F054FB43000E48A0FB03239B0C013BEE
:100690000C480D4A026040F2E732C260436000231A
:1006A0000361836000F0BCFC18B1012009B05DF863
:1006B00004FB044800F06AFBF8E700BF00100240AA
:1006C00083DE1B43C808002000100040FEE7FEE761
:1006D000FEE7FEE7FEE7704708B5024800F096FB2C
:1006E00008BD00BFC808002010B503460C4A0D49DC
:1006F0000D48006840B10C4800680344521A934208
:1007000006D8094A136010BD0748084C0460F2E798
:1007100002F0E6FC0C2303604FF0FF30F3E700BF6C
:10072000000001200004000010090020F82A002029
:100730007047000030B58FB00024079408940994E6
:100740000A940B940C940D940294039404940594CD
:100750000694214BDA6942F48022DA61DA6902F404
:1007600080220192019A9A6942F008029A619B697B
:1007700003F008030093009B184B02930923039393
:1007800003230493164D02A9284600F0E1FC154B03
:1007900002930423039302A9284600F0D9FC4FF4E6
:1007A000E1330793089409940A940C230B930C9457
:1007B0000D940D4C07A9204600F0B8FD236923F4E1
:1007C00090432361636923F02A036361E36843F480
:1007D0000053E3600FB030BD001002400400040479
:1007E000000C014008000804004800400C480D4976
:1007F0000D4A002302E0D458C4500433C4188C427C
:10080000F9D30A4A0A4C002301E013600432A242E1
:10081000FBD3FFF78DFF02F069FCFFF7DDFE7047A9
:10082000000000204C08002020370008500800205D
:10083000F42A0020FEE7000008B5074A136843F0D9
:1008400010031360032000F015F80F20FFF700FFDE
:10085000FFF7D4FE002008BD00200240034A1168C3
:10086000034B1B780B441360704700BF1409002032
:1008700004000020074AD36823F4E0631B041B0C28
:10088000000200F4E060034343F0BF6343F400332D
:10089000D360704700ED00E000B5194BDB68C3F38F
:1008A0000223C3F1070CBCF1040F28BF4FF0040C66
:1008B00003F1040EBEF1060F18D9033B4FF0FF3EC3
:1008C0000EFA0CFC21EA0C0199400EFA03F322EA1D
:1008D0000303194300280BDB0901C9B200F1604092
:1008E00000F5614080F800135DF804FB0023E5E7A4
:1008F00000F00F000901C9B2024B1954F4E700BF20
:1009000000ED00E014ED00E0002807DB00F01F021E
:10091000400901239340024A42F82030704700BF4B
:1009200000E100E070B582B00024A446B0E0874D3D
:10093000AA4210D007D9864DAA420CD005F58035C1
:10094000AA4208D013E0A5F58015AA4203D005F508
:100950007025AA4207D18A68002A62D0012A5BD09A
:100960004361082403E0A5F58015AA42F3D0BEF147
:10097000FF0F58D80646BEF1FF0F56D84FEA8C023B
:1009800033680F25954023EA050304FA02F2134366
:1009900033604B6813F0805F78D06E4B9A6942F0F9
:1009A00001029A619B6903F001030193019B4FEAE5
:1009B0009C02951C684B53F825600CF003039D00C6
:1009C0000F23AB4026EA0306644B984233D003F56D
:1009D0008063984200F0988003F58063984200F0AD
:1009E000958003F58063984200F0928003F5806360
:1009F000984200F08F8003F58063984219D0062357
:100A00001AE0CC68B3E7CC680434B0E7CC680834AB
:100A1000ADE7CC680C34AAE703610824A7E70024FB
:100A2000A5E70424A3E7061DA5E7ACF108029200A0
:100A3000A6E7052300E00023AB4033430232464DD6
:100A400045F822304B6813F4803F65D0444A136860
:100A500043EA0E0313604B6813F4003F62D0404A30
:100A6000536843EA0E0353604B6813F4801F5FD052
:100A70003B4A936843EA0E0393604B6813F4001FEC
:100A80005CD0374AD36843EA0E03D3600CF1010C03
:100A90000A6832FA0CF357D0012303FA0CF302EA86
:100AA000030E33EA0202F1D14A68122A3FF63FAF41
:100AB000122A3FF65CAF01A555F822F0570900084D
:100AC000030A00080D0A00081F0A00086F09000841
:100AD0006F0900086F0900086F0900086F09000816
:100AE0006F0900086F0900086F0900086F09000806
:100AF0006F0900086F0900086F0900086F090008F6
:100B0000070A0008130A0008012395E7022393E768
:100B1000032391E704238FE7114A136823EA0E03A6
:100B2000136098E70E4A536823EA0E0353609BE76D
:100B30000B4A936823EA0E0393609EE7084AD36842
:100B400023EA0E03D360A1E702B070BD00002210BB
:100B50000000311000100240000001400008014078
:100B600000040140002800F0CC8070B5044690F8E5
:100B70003D30002B77D0242384F83D302268136861
:100B800023F0010313602268136843F400431360E9
:100B90002268136823F40043136000F0C7F862680A
:100BA0005A4B9A4264D85A4B98428CBF0023012377
:100BB000002B40F0A8805749A1FB00318B0C256821
:100BC0006A6822F03F0242EA91426A6021680A6A3A
:100BD00022F03F0266684D4DAE424FD801331343B9
:100BE0000B622168CA6922F44F4222F0FF02666854
:100BF000464B9E424CD8431E7600B3FBF6F30133BE
:100C000040F6FC70034278D0C3F30B031343CB616F
:100C100021680B6823F0C003E269206A0243134392
:100C20000B6021688B6823F4034323F0FF032269E0
:100C3000E068024313438B602168CB6823F0FF0315
:100C40006269A06902431343CB602268136843F0D2
:100C50000103136000202064202384F83D302063CA
:100C600084F83E0070BD80F83C30FFF71DFC82E741
:100C7000294B98428CBF0023012399E74FF49675C6
:100C800005FB03F3254DA5FB03539B090133A6E7A1
:100C9000A368BBB9451E06EB460CB5FBFCF5013558
:100CA000C5F30B05B5FA85F56D0945BBC3B9013828
:100CB00006EB4603B0FBF3F30133C3F30B0343F43A
:100CC0000043A3E7451E06EB860C0CEB8C0CB5FB32
:100CD000FCF50135C5F30B05B5FA85F56D09E4E7BB
:100CE000013806EB860303EB8303B0FBF3F3013318
:100CF000C3F30B0343F4404388E7042386E701234F
:100D000084E7012070470120ACE700BFA086010006
:100D10007F841E0083DE1B43FF083D00D34D62101D
:100D2000014B1868704700BF0000002008B5FFF7AE
:100D3000F7FF044B5B68C3F30223034AD35CD8403C
:100D400008BD00BF00100240F03600080F2303600A
:100D50000B4B5A6802F0030242605A6802F0F0023C
:100D600082605A6802F4E062C2605B68DB0803F4E8
:100D7000E0630361034B1B6803F007030B607047DC
:100D800000100240002002407047000090F83D3003
:100D9000DBB2012B2FD1022380F83D300268D368EB
:100DA00043F00103D3600368154A934218D002F55B
:100DB0000062934214D0B3F1804F11D0A2F5983263
:100DC00093420DD002F58062934209D002F5806211
:100DD000934205D01A6842F001021A600020704761
:100DE0009A6802F00702062A07D01A6842F0010248
:100DF0001A6000207047012070470020704700BF34
:100E0000002C0140704770477047704710B504468A
:100E100003681A6912F0020F11D0DA6812F0020F9B
:100E20000DD06FF002021A610123037703689B69FA
:100E300013F0030F70D0FFF7E6FF0023237723683A
:100E40001A6912F0040F12D0DA6812F0040F0ED0F3
:100E50006FF004021A610223237723689B6913F45D
:100E6000407F5FD02046FFF7CEFF00232377236823
:100E70001A6912F0080F12D0DA6812F0080F0ED0BB
:100E80006FF008021A61042323772368DB6913F0EB
:100E9000030F4ED02046FFF7B6FF002323772368C9
:100EA0001A6912F0100F12D0DA6812F0100F0ED07B
:100EB0006FF010021A61082323772368DB6913F4AB
:100EC000407F3DD02046FFF79EFF00232377236815
:100ED0001A6912F0010F03D0DA6812F0010F36D14F
:100EE00023681A6912F0800F03D0DA6812F0800FBD
:100EF00034D123681A6912F0400F03D0DA6812F077
:100F0000400F32D123681A6912F0200F03D0DA683B
:100F100012F0200F30D110BDFFF774FF2046FFF70D
:100F200073FF8AE72046FFF76DFF2046FFF76CFF4F
:100F30009BE72046FFF766FF2046FFF765FFACE71B
:100F40002046FFF75FFF2046FFF75EFFBDE76FF02B
:100F500001021A612046FFF7D9FAC1E76FF080025B
:100F60001A61204600F089F8C3E76FF040021A6169
:100F70002046FFF74AFFC5E76FF020021A612046BE
:100F800000F07AF8C7E700000368244A904212D0C4
:100F900002F5006290420ED0B0F1804F0BD0A2F566
:100FA0009832904207D002F58062904203D002F559
:100FB0008062904203D123F070034A681343174ABA
:100FC000904212D002F5006290420ED0B0F1804FF4
:100FD0000BD0A2F59832904207D002F58062904281
:100FE00003D002F58062904203D123F44073CA68B3
:100FF000134323F080034A69134303608B68C36281
:101000000B688362054B984203D003F50063984256
:1010100001D10B690363012343617047002C014038
:1010200040B310B5044690F83D30F3B1022384F884
:101030003D30214651F8040BFFF7A6FF012384F849
:10104000463084F83E3084F83F3084F8403084F8ED
:10105000413084F8423084F8433084F8443084F8D6
:10106000453084F83D30002010BD80F83C30FFF75B
:101070008BFEDBE7012070477047704710B40346D2
:101080000079002853D01A68002A5DD058790128C9
:1010900018D0022821D058B101209A79002A51D0C5
:1010A000022A2FD0032A38D0012A20D0012049E07B
:1010B00026494C6824EA02024A601A680C682243F6
:1010C0000A60EAE72149086820EA02020A601A6811
:1010D000486802434A600020DFE71C490868024371
:1010E0000A601A68486802434A600020D5E71C6815
:1010F000164AD16821EA0401D1601B6891680B434C
:1011000093601FE01C68114A916821EA0401916014
:101110001B68D1680B43D36014E019680B4A9468CC
:10112000214391601B68D1680B43D3600AE0074AF2
:1011300011681C6821EA040111601968536823EAE8
:101140000103536010BC70470020FBE7000401401E
:101150000B68C3F30F2C9CFAACF2B2FA82F276E081
:10116000A2F108044FF00113A34043F080634C68E0
:10117000082C2CD01D0E93FAA3F4B4FA84F4A40026
:101180004FF00F0E0EFA04F4465926EA040493FABF
:10119000A3FEBEFA8EFE4FEA8E0E4E6806FA0EFED3
:1011A00044EA0E0444514C68012C1ED0092C1CD07A
:1011B00001323CFA02F347D00123934013EA0C0FAB
:1011C000F6D0072ACCD840F201139340CFE70D693F
:1011D000C6681C0A26EA132694FAA4F4B4FA84F426
:1011E00005FA04F43443C460C4E74FEA136E50F8C0
:1011F0000E4093FAA3F5B5FA85F5AD00032606FA7D
:1012000005F524EA050493FAA3F5B5FA85F5AD00D2
:101210008E6806FA05F5254340F80E50CC6893FA1F
:10122000A3F6B6FA86F6B600042707FA06F625EA0C
:10123000060593FAA3F3B3FA83F39B0004FA03F3CE
:101240002B4340F80E30B3E70020F0BD01323CFAEA
:1012500002F306D00123934013EA0C0FF6D0F0B549
:10126000AFE7002070470000034B5B68C3F3031334
:10127000024AD35CD840704700100240E0360008B4
:10128000034B5B68C3F30223024AD35CD840704728
:1012900000100240F0360008034B5B68C3F3C22322
:1012A000024AD35CD840704700100240F036000874
:1012B0000B4B5B6803F4803343B90A48084B5B6807
:1012C000C3F38343023303FB00F07047044B5868B9
:1012D000C0F34040431C0448B0FBF3F0EEE700BF0E
:1012E0000010024000093D0000127A0008B5054BCD
:1012F0005B6803F00C03082B01D0034808BDFFF71F
:10130000D7FFFBE70010024000127A0010B5044638
:10131000FFF7ECFF2060FFF7A7FF6060FFF7B0FF6B
:10132000A0606068FFF7B8FFE06010BDC36813F409
:10133000005F01D00120704730B585B004460D46EE
:10134000C36823F4B05323F00C034A68C9680A4306
:1013500029690A431343C360AB68026922F440520F
:10136000134303616B69426922F440721343436182
:101370006846FFF7CBFF214B9C420DD0204B9C428F
:1013800010D0204B9C420FD01F4B9C420ED01F4BC5
:101390009C420DD001202FE0039B63B32A684AB919
:1013A000012029E0029BF8E7029BF6E7029BF4E7A5
:1013B000029BF2E703EB830303EB83039200B3FB8F
:1013C000F2F31348A0FB032149090A0192B26425F4
:1013D00005FB11331B013233A0FB0313C3F34F137F
:1013E00003F0F0010A4492B203F00F0313449BB2DE
:1013F000A360002000E0012005B030BD00380140AE
:101400000044004000480040004C004000500040B4
:101410001F85EB51014B1860704700BF0000002092
:10142000EFF3058393B9EFF3108393B90C4B18686E
:10143000022804D080B90A4B01221A607047EFF3EA
:101440001183002BF6D06FF0050070476FF0050098
:1014500070476FF0050070474FF0FF30704700BFD6
:10146000A00F002008B5EFF30583B3B9EFF31083A5
:10147000B3B90E4B1B68022B08D0012B13D10B4BB9
:1014800002221A6001F00CF9002008BDEFF311826E
:10149000002AF2D06FF00500F7E76FF00500F4E7DF
:1014A0006FF00500F1E74FF0FF30EEE7A00F0020EE
:1014B000F0B587B000240494EFF30584002C44D1E8
:1014C000EFF31083002B40D1344B1B68022B16D056
:1014D00000283AD000238DF817306AB3156895B10B
:1014E000936903B918235C1E372C52D8546814F042
:1014F000010F50D156694EB14FEA960C08E0EFF358
:10150000118313BBE4E70DF11705E9E74FF0800CF9
:10151000946834B1D768B7F5916F02D3176907B1F2
:10152000B6B914B14FF0FF340CE0D46894B9146923
:101530009CB14FF0FF3405E0002418234FF0800CDD
:101540000DF11705012C0AD0ACB1049807B0F0BD1D
:101550000124F7E74FF0FF34F4E70024F2E71469C1
:1015600092680292019400930B466246294601F06C
:1015700025F80490E9E704AA019200930B461FFAAC
:101580008CF2294601F056F80128DED0002304939E
:10159000DBE70020DAE70020D8E700BFA00F00203B
:1015A00008B5EFF30583A3B9EFF31083A3B90C4B90
:1015B0001B68022B02D040B9002008BDEFF3118355
:1015C000002BF8D06FF00500F7E701F0D5F9002007
:1015D000F3E76FF00500F0E76FF00500EDE700BFFF
:1015E000A00F0020034B0360034B0B6080231360AC
:1015F000704700BF180B002018090020034B036040
:10160000034B0B604FF4807313607047A8130020E6
:10161000A40F002000F1080343604FF0FF32826006
:10162000C3600361002303607047002303617047B8
:1016300043684B609A688A605160996008610368EA
:1016400001330360704730B40D68B5F1FF3F11D02E
:1016500000F108031C465B681A68AA42FAD963685D
:101660004B6099608C6061600861036801330360BE
:1016700030BC70470469F2E70369416882688A6098
:10168000416851605A68824206D0002202611A689D
:10169000013A1A601868704782685A60F5E70000DE
:1016A00082B0002301930D4B1B68B3F1FF3F08D0BC
:1016B0004FF0500383F31188BFF36F8FBFF34F8F49
:1016C000FEE74FF0500383F31188BFF36F8FBFF332
:1016D0004F8F019B002BFCD002B070470800002008
:1016E00006480068006880F3088862B661B6BFF3F8
:1016F0004F8FBFF36F8F00DF00BF000008ED00E0E9
:101700004FF0807340F8043C21F0010140F8081CC0
:10171000034B40F80C3C40F8202C4038704700BF89
:10172000A1160008000000000000000000000000FA
:10173000074B19680868B0E8F00F80F30988BFF319
:101740006F8F4FF0000080F311884EF00D0E704740
:10175000902400204FF0500383F31188BFF36F8F64
:10176000BFF34F8F0B4A136801331360012B00D076
:1017700070474FF0E023D3F8043D13F0FF0FF7D08C
:101780004FF0500383F31188BFF36F8FBFF34F8F78
:10179000FEE700BF08000020094B1B6843B94FF06B
:1017A000500383F31188BFF36F8FBFF34F8FFEE7B2
:1017B000013B034A13600BB983F31188704700BFE4
:1017C00008000020000000000000000000000000F1
:1017D000EFF30980BFF36F8F0D4B1A6820E9F00F0C
:1017E00010602DE908404FF0500080F3118801F09F
:1017F000E9F84FF0000080F31188BDE8084019684F
:101800000868B0E8F00F80F30988BFF36F8F704766
:101810009024002008B54FF0500383F31188BFF3E4
:101820006F8FBFF34F8F00F09FFF28B14FF0E02381
:101830004FF08052C3F8042D002383F3118808BDB4
:101840004FF0E022002313619361054B1B680549AB
:10185000A1FB03139B09013B5361072313617047ED
:1018600000000020D34D621010B582B02A4B1A78C8
:10187000D2B20192FF221A701B78DBB28DF80330CE
:101880009DF8033003F05003244A1370244B0722C1
:101890001A6009E0224A1368013B13609DF8033087
:1018A0005B00DBB28DF803309DF8033013F0800F3E
:1018B000F0D11B4B1B68032B08D04FF0500383F370
:1018C0001188BFF36F8FBFF34F8FFEE71B02144ADF
:1018D000136003F4E0631360019BDBB20E4A1370E4
:1018E0004FF0E023D3F8202D42F47002C3F8202DEE
:1018F000D3F8202D42F07042C3F8202DFFF7A0FF4F
:101900000024084B1C60FFF7EBFE01F05BF8FFF7CB
:10191000C7FE204602B010BD00E400E030180020F1
:101920003418002008000020EFF305830F2B0FD997
:10193000114A9B5CDBB2114A12789A4208D94FF0E7
:10194000500383F31188BFF36F8FBFF34F8FFEE710
:101950004FF0E023D3F80C3D03F4E063084A12682B
:10196000934208D94FF0500383F31188BFF36F8F70
:10197000BFF34F8FFEE77047F0E300E03018002020
:1019800034180020124A12F0070F1ED0D11D21F08A
:101990000701C1F5406313440A460E480260002166
:1019A00041601344083B23F007030B480360596070
:1019B0001960991A51601360084B1960084B19603F
:1019C000084B4FF000421A6070474FF44063E4E761
:1019D0003C1800204824002038180020442400200F
:1019E000402400203C240020154B1A461B688342EB
:1019F000FBD3516802EB010C844509D0416800EB30
:101A0000010C634509D00360904218D01060704704
:101A10004068014451601046F0E710B4094C246856
:101A2000A3420AD05B681944416013681B680360D5
:101A3000904200D0106010BC70470460F8E7704717
:101A4000482400203818002070B5054600F07EFEBE
:101A5000344B1B68A3B1344B1B681D424AD135B1CE
:101A6000083515F0070F02D025F007050835002DC1
:101A700042D02E4B1B68AB424DD32D4A146804E074
:101A8000FFF780FFE7E722461C466368AB4202D2BD
:101A90002368002BF7D1234B1B68A3423DD0166867
:101AA00008362368136063685B1B102B10D960191C
:101AB00010F0070F08D04FF0500383F31188BFF3E5
:101AC0006F8FBFF34F8FFEE743606560FFF78CFFBA
:101AD000626816490B689B1A0B60164909688B42AD
:101AE00001D214490B60104B1B6813436360002341
:101AF000236002E0002600E0002600F0C1FE16F0A0
:101B0000070F0CD04FF0500383F31188BFF36F8F92
:101B1000BFF34F8FFEE70026EFE70026EDE73046E4
:101B200070BD00BF381800203C2400204024002055
:101B3000482400204424002080B338B50446A0F196
:101B4000080550F8043C164A1268134208D14FF0B9
:101B5000500383F31188BFF36F8FBFF34F8FFEE7FE
:101B600050F8081C41B14FF0500383F31188BFF3C4
:101B70006F8FBFF34F8FFEE723EA020340F8043C68
:101B800000F0E4FD54F8041C064A13680B4413608B
:101B90002846FFF729FF00F073FE38BD704700BFED
:101BA0003C2400204024002010B50446FFF7D2FD5D
:101BB000A26BE36B9A4204D00024FFF7EDFD2046B0
:101BC00010BD0124F9E710B50446FFF7C3FDA36B70
:101BD00023B90124FFF7E0FD204610BD0024F9E7FA
:101BE00070B504461546866B026C5AB903681BB182
:101BF00000200136A66370BD406801F011F8002393
:101C00006360F6E76DB98068FEF712FB226CA3688B
:101C10001344A3606268934219D32368A3602846E3
:101C2000E7E7C068FEF704FB226C5142E3689B1AA9
:101C3000E3602268934202D263680B44E360022DA2
:101C400001D00020D5E726B1013E0020D1E728468B
:101C5000CFE70020CDE708B50346026C62B1084625
:101C6000D9681144D960D3F804C0614501D319681B
:101C7000D960D968FEF7DCFA08BD38B50546FFF72C
:101C800069FD95F8454064B201E0013C64B2002C66
:101C90000ADD6B6A43B105F1240000F017FF00284C
:101CA000F3D000F0A7FFF0E7FF2385F84530FFF7FA
:101CB00073FDFFF74FFD95F8444064B201E0013C2D
:101CC00064B2002C0ADD2B6943B105F1100000F06D
:101CD000FDFE0028F3D000F08DFFF0E7FF2385F82C
:101CE0004430FFF759FD38BD38B5E0B10D46044624
:101CF000FFF730FD2368E26B216C01FB023060606E
:101D00000020A063A360013A02FB0133E360FF23DC
:101D100084F8443084F84530FDB9236963B9FFF78E
:101D20003BFD012038BD4FF0500383F31188BFF312
:101D30006F8FBFF34F8FFEE704F1100000F0C6FE77
:101D40000028ECD04FF0E0234FF08052C3F8042D70
:101D5000BFF34F8FBFF36F8FE1E704F11000FFF780
:101D600059FC04F12400FFF755FCD8E738B51D46AF
:101D7000049C0B4649B92460E0632364012120469A
:101D8000FFF7B2FF84F84C5038BD2260F4E740B949
:101D90004FF0500383F31188BFF36F8FBFF34F8F62
:101DA000FEE710B584B01C46844653B192B189B9A0
:101DB0004FF0500383F31188BFF36F8FBFF34F8F42
:101DC000FEE74FF0500383F31188BFF36F8FBFF32B
:101DD0004F8FFEE76AB150230393039B502B13D020
:101DE0004FF0500383F31188BFF36F8FBFF34F8F12
:101DF000FEE70029EFD04FF0500383F31188BFF3C3
:101E00006F8FBFF34F8FFEE7012384F846300094B5
:101E10009DF818306046FFF7A9FF204604B010BDBA
:101E2000F0B585B0019288B10F461D460446B1B1A8
:101E3000022D20D1E36B012B1DD04FF0500383F313
:101E40001188BFF36F8FBFF34F8FFEE74FF0500342
:101E500083F31188BFF36F8FBFF34F8FFEE7036CDF
:101E6000002BE5D04FF0500383F31188BFF36F8F41
:101E7000BFF34F8FFEE700F0C3FE064658B9019B43
:101E8000002B48D04FF0500383F31188BFF36F8FBE
:101E9000BFF34F8FFEE700263DE02A463946204635
:101EA000FFF79EFE636A7BB948B14FF0E0234FF025
:101EB0008052C3F8042DBFF34F8FBFF36F8FFFF72E
:101EC0006BFC012005B0F0BD04F1240000F0FEFD24
:101ED0000028F4D04FF0E0234FF08052C3F8042DD7
:101EE000BFF34F8FBFF36F8FE9E7FFF755FC00207B
:101EF000E8E702A800F030FE012619E0002384F88C
:101F0000443021E0002384F8453023E02046FFF7E9
:101F1000B4FE00F0B5FCFFF71DFCA26BE36B9A4228
:101F2000BBD3022DB9D0019B002BDED0002EE0D018
:101F3000FFF732FC00F00AFCFFF70CFC94F8442099
:101F400052B2B2F1FF3FD9D094F8452052B2B2F16B
:101F5000FF3FD7D0FFF720FC01A902A800F008FE40
:101F6000D8B92046FFF720FE0028CFD0019904F110
:101F7000100000F077FD2046FFF77FFE00F080FCA8
:101F80000028C8D14FF0E0234FF08052C3F8042D51
:101F9000BFF34F8FBFF36F8FBDE72046FFF76DFE96
:101FA00000F06EFC00208DE72DE9F84390B10F465C
:101FB00016461C460546B1B1022C20D1EB6B012B15
:101FC0001DD04FF0500383F31188BFF36F8FBFF321
:101FD0004F8FFEE74FF0500383F31188BFF36F8FED
:101FE000BFF34F8FFEE7036C002BE5D04FF050039B
:101FF00083F31188BFF36F8FBFF34F8FFEE7FFF7B7
:1020000093FCEFF311894FF0500383F31188BFF372
:102010006F8FBFF34F8FAA6BEB6B9A4206D3022CE4
:1020200004D0002089F31188BDE8F88395F8458035
:102030004FFA88F8224639462846FFF7D1FDB8F115
:10204000FF3F06D008F101035BB285F8453001205F
:10205000E8E76B6A0BB90120E4E705F1240000F022
:1020600035FD18B126B101203060DBE70120D9E74A
:102070000120D7E7F0B585B0019290B10F46044634
:10208000C1B100F0BDFD064600BB019B002B5ED038
:102090004FF0500383F31188BFF36F8FBFF34F8F5F
:1020A000FEE74FF0500383F31188BFF36F8FBFF348
:1020B0004F8FFEE7036C002BE3D04FF0500383F308
:1020C0001188BFF36F8FBFF34F8FFEE700263EE00E
:1020D00039462046FFF7BFFD013DA563236923B9BB
:1020E000FFF75AFB012005B0F0BD04F1100000F02D
:1020F000EDFC0028F4D04FF0E0234FF08052C3F8FD
:10210000042DBFF34F8FBFF36F8FE9E7FFF744FB59
:102110000020E8E702A800F01FFD012621E00023CF
:1021200084F8443029E0002384F845302BE0204631
:10213000FFF7A3FD00F0A4FB09E02046FFF79DFD9B
:1021400000F09EFB2046FFF73EFD00283FD1FFF741
:1021500001FBA56B002DBBD1019B002BD6D0002E1F
:10216000D8D0FFF719FB00F0F1FAFFF7F3FA94F873
:1021700044305BB2B3F1FF3FD1D094F845305BB24D
:10218000B3F1FF3FCFD0FFF707FB01A902A800F092
:10219000EFFC0028D1D12046FFF715FD0028C6D05E
:1021A000019904F1240000F05DFC2046FFF765FD75
:1021B00000F066FB0028CAD14FF0E0234FF08052B8
:1021C000C3F8042DBFF34F8FBFF36F8FBFE700201D
:1021D00089E700000023072B0CD8074A52F8332068
:1021E0000AB10133F7E7044A42F8331002EBC303A4
:1021F00058607047704700BF5024002070B50446F7
:102200000D461646FFF7A6FA94F844305BB2B3F1D8
:10221000FF3F0DD094F845305BB2B3F1FF3F0BD0D8
:10222000FFF7BAFAA36B5BB12046FFF726FD70BD3E
:10223000002384F84430EDE7002384F84530EFE7CD
:102240003246294604F1240000F024FCECE70000AB
:10225000084B1B681B6823B9074B4FF0FF321A600D
:102260007047044B1B68DB68DB685A68024B1A60D6
:10227000704700BF94240020402900202DE9F0473A
:1022800080460D4617469946089EDDF824A00A9C14
:102290009200A521206B00F04DFF236B07F18042D7
:1022A000013A03EB820727F007074FF0000CBCF15F
:1022B0000F0F0BD815F80C2004EB0C0383F8342017
:1022C00015F80C3013B10CF1010CF0E7002384F881
:1022D0004330372E00D93726E662E66400252565AF
:1022E000201DFFF7A2F904F11800FFF79EF9246101
:1022F000C6F13806A6616462C4F8805484F8845438
:102300004FF48562294604F1580000F013FF04F5EC
:102310005173E36504F56B73236604F2144363663B
:1023200001220023C4E9402343F20E33A4F808310C
:102330004AF6CD33A4F80A3141F23423A4F80C3123
:102340004EF26D63A4F80E314DF6EC63A4F8103133
:102350000523A4F812310B23A4F814314A46414650
:102360003846FFF7CDF92060BAF1000F01D0CAF866
:102370000040BDE8F087000038B5002407E004EB1A
:10238000840293000E481844FFF744F90134372CB7
:10239000F5D90C4D2846FFF73DF90B4C2046FFF7C9
:1023A00039F90A48FFF736F90948FFF733F90948C0
:1023B000FFF730F9084B1D60084B1C6038BD00BFAB
:1023C0009C240020142900202829002048290020CE
:1023D00074290020602900209424002098240020E3
:1023E00010B50446FFF7B6F9224A136801331360AB
:1023F000214B1B685BB1214B1B686BB91E4B1B68E3
:10240000DA6AE36A9A4207D81B4B1C6004E01A4B55
:102410001C601368012B29D0194A1368013313601B
:102420006364E06A174B1B68984201D9154B18602A
:1024300000EB8000211D144B03EB8000FFF7F8F840
:10244000FFF7AAF90D4B1B687BB10B4B1B68DA6ACF
:10245000E36A9A4209D24FF0E0234FF08052C3F86A
:10246000042DBFF34F8FBFF36F8F10BDFFF784FFB5
:10247000D2E700BFFC280020902400205C29002027
:102480000C290020102900209C24002010B50446AF
:10249000583000F0C5FE94F8853463B1012B11D09B
:1024A000022B0ED04FF0500383F31188BFF36F8FD0
:1024B000BFF34F8FFEE7206BFFF73EFB2046FFF791
:1024C0003BFB10BD2046FFF737FBFAE70F4B1B68BD
:1024D000D3B110B5FFF73EF90D4BDB68DC68201D6A
:1024E000FFF7CAF80B4A1368013B1360074A1368E9
:1024F000013B1360FFF750F92046FFF7C7FF034B7E
:102500001B68002BE6D110BD704700BF00290020DA
:1025100074290020FC28002008B5FFF7D7FF074BDF
:102520001B68012BF9D94FF0E0234FF08052C3F81C
:10253000042DBFF34F8FBFF36F8FEEE79C24002075
:1025400070B504460D46174B1E68174B18680430CB
:10255000FFF792F8B4F1FF3F0DD03444124B1B68E3
:102560005C60A64210D9114B18680F4B19680431F2
:10257000FFF769F870BD002DEFD00B4B19680431DF
:102580000B48FFF755F8F5E70A4B1868064B196832
:102590000431FFF758F8084B1B68A342EAD9064BF1
:1025A0001C60E7E788290020902400209824002060
:1025B00060290020942400204029002030B587B0F5
:1025C0000B9C8CB10C9DC5B14FF491650495049D95
:1025D000B5F5916F1AD04FF0500383F31188BFF314
:1025E0006F8FBFF34F8FFEE74FF0500383F31188D7
:1025F000BFF36F8FBFF34F8FFEE74FF0500383F3AE
:102600001188BFF36F8FBFF34F8FFEE70C9D2C63D4
:10261000022485F8854400240394029505AC0194B6
:102620000A9C0094FFF72AFE0C98FFF7D9FE059844
:1026300007B030BD2DE9F04385B007468846144603
:102640001E469000FFF700FA08B381464FF49160F0
:10265000FFF7FAF90546B0B1C0F83090E5B10023B4
:1026600085F88534039302950D9B01930C9B009391
:102670003346224641463846FFF700FE2846FFF71C
:10268000AFFE012005E04846FFF756FAE6E74FF0B7
:10269000FF3005B0BDE8F0834FF0FF30F9E70000F0
:1026A00010B588B000240594069407AA06A905A8C9
:1026B000FEF798FF059B0293069B01930094234627
:1026C000079A1A491A48FFF779FF1A4B186040B168
:1026D00000F05AFB012806D0B0F1FF3F1DD008B032
:1026E00010BD0020F6E74FF0500383F31188BFF3CD
:1026F0006F8FBFF34F8F104B1B6858330F4A136017
:102700000F4B4FF0FF321A600E4B01221A600E4B36
:1027100000221A60FFF7A8F8E1E74FF0500383F3B7
:102720001188BFF36F8FBFF34F8FFEE7F8360008B5
:10273000192500083C290020902400200C000020CE
:10274000402900205C29002088290020024A1368C3
:1027500001331360704700BF08290020014B18683F
:10276000704700BF88290020F8B53A4B1B68002B42
:1027700064D1394B1D6801351D60C5B9374B1B68E5
:102780001B6843B14FF0500383F31188BFF36F8F81
:10279000BFF34F8FFEE7314A1168314B1868106064
:1027A0001960304A136801331360FFF751FD2E4B57
:1027B0001B68AB4238D900272C4B1B68DB6A03EB44
:1027C00083039A002A4B9B58012B3CD901273AE0FE
:1027D0000127224B1B681B6843B3204B1B68DB6837
:1027E000DC6863689D4226D3261D3046FEF744FF11
:1027F000A36A1BB104F11800FEF73EFFE36A1D4A0D
:102800001268934201D91B4A136003EB83039A00B9
:10281000314617481044FEF70BFFE26A134B1B6862
:10282000DB6A9A42D4D2D4E70027D2E70E4B4FF0AE
:10283000FF321A60C0E70C4A1360BDE70E4A136806
:102840000133136000270D4B1B6803B10127384685
:10285000F8BD00BF0829002088290020942400200A
:1028600098240020442900204029002090240020A2
:102870009C24002010290020042900208C290020FD
:1028800038B5354B1B6843B94FF0500383F31188BB
:10289000BFF36F8FBFF34F8FFEE7FEF75BFF2E4B4B
:1028A0001A68013A1A601B68002B4FD12B4B1B682A
:1028B0000BB900244BE00024294B1B681BB3284BA9
:1028C000DB68DC6804F11800FEF7D6FE251D2846FB
:1028D000FEF7D2FEE06A234B1B68984201D9214BD8
:1028E000186000EB800029461F4B03EB8000FEF7C9
:1028F0009FFEE26A1D4B1B68DB6A9A42DCD31C4BCD
:1029000001221A60D8E70CB1FFF7A2FC194B1C6832
:1029100084B9174B1C68D4B14FF0E0234FF08052BC
:10292000C3F8042DBFF34F8FBFF36F8F01240EE068
:10293000013C07D0FFF718FF0028F9D00C4B01220B
:102940001A60F5E70B4B00221A60E2E70024FEF75D
:1029500023FF204638BD00BF08290020FC280020A6
:1029600048290020102900209C24002090240020C9
:102970008C2900200429002010B5A8B10446104B72
:102980001B6843B14FF0500383F31188BFF36F8F7F
:10299000BFF34F8FFEE7FFF7D9FE00212046FFF778
:1029A000CFFDFFF76DFF48B94FF0E0234FF08052A5
:1029B000C3F8042DBFF34F8FBFF36F8F10BD00BF5F
:1029C00008290020214B1B681BB1214B01221A60F2
:1029D00070471F4B00221A601E4B1B6803EB8301DC
:1029E0008A001D498A585AB90BB1013BF6E74FF0EE
:1029F000500383F31188BFF36F8FBFF34F8FFEE750
:102A000003EB830082000A4450684068506003EB87
:102A1000830C4FEA8C020832114488420FD003EB3A
:102A2000830291000C4A0A445268D1680B4A116033
:102A300008490B6013685833094A136070474068AF
:102A400062469100044A0A445060E8E708290020E1
:102A50008C290020102900209C2400209024002094
:102A60000C00002058B110B50C46094A1168183105
:102A7000FEF7E9FD01212046FFF762FD10BD4FF092
:102A8000500383F31188BFF36F8FBFF34F8FFEE7BF
:102A90009024002038B570B10D4614460A4A1168DA
:102AA0001831FEF7C5FD0CB14FF0FF352146284621
:102AB000FFF746FD38BD4FF0500383F31188BFF395
:102AC0006F8FBFF34F8FFEE79024002038B5C368A7
:102AD000DC6824B304F118052846FEF7CDFD184B39
:102AE0001B682BBB251D2846FEF7C6FDE06A154B6B
:102AF0001B68984201D9134B186000EB80002946EF
:102B0000114B03EB8000FEF793FDE26A0F4B1B684D
:102B1000DB6A9A4211D901200D4B186038BD4FF085
:102B2000500383F31188BFF36F8FBFF34F8FFEE71E
:102B300029460848FEF77CFDE7E70020EEE700BFE6
:102B400008290020102900209C2400209024002027
:102B50008C29002048290020034B1B680360034B8D
:102B60001B684360704700BF44290020882900206B
:102B7000D8B170B50C46054601B3FEF7EBFD1B4B13
:102B800019686B68C81A2268B2F1FF3F27D0184E47
:102B90003668D5F800C0B44501D08B4224D98242B2
:102BA00015D80023236001241AE04FF0500383F36B
:102BB0001188BFF36F8FBFF34F8FFEE74FF05003C5
:102BC00083F31188BFF36F8FBFF34F8FFEE75B1A5C
:102BD000134423602846FFF7BFFF002400E00024D1
:102BE000FEF7DAFD204670BD0124F9E788290020B0
:102BF00044290020014B01221A6070478C290020D3
:102C0000054B1B6833B1054B1B680BB100207047A7
:102C100002207047012070475C290020082900200D
:102C200000283BD038B504461E4B1B68834208D0B1
:102C30004FF0500383F31188BFF36F8FBFF34F8FB3
:102C4000FEE7036D43B94FF0500383F31188BFF3E0
:102C50006F8FBFF34F8FFEE7013B0365C16AC26C04
:102C600091421DD00BB1002038BD051D2846FEF74E
:102C700003FDE06CE062C0F13803A3610A4B1B68FE
:102C8000984201D9084B186000EB80002946074B99
:102C900003EB8000FEF7CCFC0120E5E70020704745
:102CA0000020E1E790240020102900209C2400202F
:102CB000064B1A681368B3FA83F35B09036013B910
:102CC000D368186870470020704700BF9029002023
:102CD00008B54160006191420CD8D21A83699A42CA
:102CE00001D3012008BD011D094B1868FEF7ABFC9C
:102CF0000020F7E79A4201D2994206D2011D054B06
:102D00001868FEF7A0FC0020ECE70120EAE700BF0E
:102D1000942900209029002030B583B0FEF71AFDD9
:102D2000114B1B681BB1FEF737FD03B030BD0F4DD3
:102D30002846FEF76FFC0E4C2046FEF76BFC0D4B51
:102D40001D600D4B1C60002300930C4B0C4A10219E
:102D50000A20FFF71CF8044B18600028E3D009494B
:102D6000FFF738FADFE700BFB42A0020382A002036
:102D70004C2A00209029002094290020642A002059
:102D8000982900200037000810B588B0FFF7C4FF6D
:102D9000124B1B68CBB100240594069407AA06A920
:102DA00005A8FEF72BFC059B0293069B01930223CB
:102DB00000932346079A0A490A48FFF7FFFB0A4B8C
:102DC000186010B1012008B010BD4FF0500383F31C
:102DD0001188BFF36F8FBFF34F8FFEE7B42A002037
:102DE00008370008C9300008B82A0020B8B19C464E
:102DF00003461848006858B300B585B000910192A9
:102E0000029305291CDCFFF7FBFE022810D00023EB
:102E10001A4669460F480068FFF702F815E04FF0C0
:102E2000500383F31188BFF36F8FBFF34F8FFEE71B
:102E30000023069A694607480068FEF7F1FF04E0A0
:102E4000002362466946FFF7AFF805B05DF804FB62
:102E500000207047B42A002070B582B01A4B1B685E
:102E60001A6852B3DB681E68DC68251D2846FEF729
:102E700003FC636A20469847E369012BEED1A369FE
:102E800033449E4207D26360246129460E4B186882
:102E9000FEF7D9FBE2E7002100910B4632462046BF
:102EA000FFF7A4FF0028D9D14FF0500383F3118816
:102EB000BFF36F8FBFF34F8FFEE7044A10680249DC
:102EC0000860136002B070BD902900209429002092
:102ED00038B50546FFF742FC0446074B1B688342A2
:102EE00005D800232B60044B1C60204638BDFFF73B
:102EF000B3FF01232B60F6E7602A002070B582B093
:102F000006460D4614490968C968CC68201DFEF7BD
:102F1000B3FBE169012904D0636A2046984702B0F7
:102F200070BDA16933462A4631442046FFF7D0FEE2
:102F30000028F1D0002100910B4632462046FFF7D1
:102F400055FF0028E8D14FF0500383F31188BFF3F9
:102F50006F8FBFF34F8FFEE79029002070B582B0CE
:102F600006460C46FFF7F2FB01A8FFF7B1FF019BF5
:102F70002BBB05460CB9B0421AD22CB1124B1B68C0
:102F80001C68B4FA84F464092246711B0F4B18685C
:102F9000FFF734F9FFF774FC98B94FF0E0234FF0D6
:102FA0008052C3F8042DBFF34F8FBFF36F8F08E03B
:102FB000FFF766FC29463046FFF7A0FF01E0FFF768
:102FC0005FFC02B070BD00BF94290020B42A00202D
:102FD00010B588B002E0049B002B0FDA002204A990
:102FE000384B1868FFF746F8002869D0049B002B7F
:102FF000F1DA07990698059B9847ECE7069C636908
:1030000013B1201DFEF738FB03A8FFF761FF049BF7
:10301000092BE3D801A252F823F000BF4530000885
:103020004530000845300008DD2F00088B300008CF
:10303000B13000084530000845300008DD2F000899
:103040008B300008059BA169024619442046FFF712
:103050003FFE0028C2D0636A20469847E369012BEF
:10306000BCD1A269002100910B460598024420467C
:10307000FFF7BCFE0028B1D14FF0500383F3118855
:10308000BFF36F8FBFF34F8FFEE70599A16131B199
:103090000346024601442046FFF71AFE9EE74FF022
:1030A000500383F31188BFF36F8FBFF34F8FFEE799
:1030B00094F82C30002B91D12046FEF73DFD8DE792
:1030C00008B010BDB42A002000B583B001A8FFF7F6
:1030D000EFFD0199FFF742FFFFF77AFFF6E70000E7
:1030E000014B1868704700BF0C00002070B50D4EF2
:1030F0000D4D761BB61006D0002455F8043B013464
:103100009847A642F9D1094E094D00F0AFFA761B57
:10311000B61006D0002455F8043B01349847A64267
:10312000F9D170BD14370008143700081C370008A7
:1031300014370008830730B548D0541E002A3FD00A
:103140000346CAB201E0013C3AD303F8012B9D07C4
:10315000F9D1032C2DD9CDB245EA05250F2C45EA2E
:10316000054536D9A4F1100222F00F0C03F1200E10
:10317000E6444FEA121C03F1100242E9045542E909
:10318000025510327245F8D10CF1010214F00C0F07
:1031900003EB021204F00F0C13D0ACF1040323F084
:1031A00003030433134442F8045B9342FBD10CF055
:1031B00003042CB1CAB21C4403F8012B9C42FBD17E
:1031C00030BD64461346002CF4D1F9E7034614469B
:1031D000BFE71A46A446E0E72DE9F0410E680C4629
:1031E0000546BEB137688FB1D7F80080B8F1000F3F
:1031F00008D0D8F8001009B1FFF7EEFF4146284685
:1032000000F0CCF83946284600F0C8F83146284688
:1032100000F0C4F821462846BDE8F04100F0BEB8F1
:10322000224B1B68834240D0C16C70B5054681B10A
:1032300000268C593CB121462468284600F0AEF89F
:10324000002CF8D1E96C0436802EF2D1284600F02B
:10325000A5F8296C11B1284600F0A0F8D5F848412E
:1032600054B105F5A676B44206D021462468284616
:1032700000F094F8A642F8D1696D11B1284600F02B
:103280008DF8AB6B83B12846EB6B9847D5F8E042DD
:1032900054B1216811B12846FFF79EFF2146284608
:1032A000BDE8704000F07AB870BD70470C00002097
:1032B000024B13B1024800F005B87047000000004F
:1032C000D1320008002301461A46184600F088B99A
:1032D00038B5084B084D5B1B9C1007D0043B1D44C0
:1032E000013C55F804399847002CF9D1BDE8384025
:1032F00000F0C2B9203700081C370008F8B50C46AA
:10330000234F064600F04EF9BB685D68C4F57E6346
:1033100025F003050F332B4423F47F6323F00F03C1
:10332000A3F58054B4F5805F07DB0021304600F040
:1033300045F9BB682B44984204D0304600F038F978
:103340000020F8BD3046614200F038F901300DD060
:10335000104ABB682D1B45F001055D6013683046BF
:103360001B1B136000F024F90120F8BD002130463A
:1033700000F024F9BA68831A0F2BDEDD43F0010355
:103380005360054B03491B68C01A0860D5E700BFAE
:103390003C040020C82A00204408002000295ED0F8
:1033A000F8B50C46064600F0FDF854F8042C784FAA
:1033B000A4F1080522F001016818D7F808C0436895
:1033C000844523F0030300F08780D207436034D4A0
:1033D00054F8082C07F10804AD1A1144AA68A24257
:1033E00068D000EB030CDCF804E0D5F80CC01EF04C
:1033F000010FC2F80CC0CCF8082000F0918041F019
:1034000001036B600160B1F5007F31D24A09CB083E
:10341000012191407A6801331143796007EBC302BF
:1034200057F83310083AC5E9021247F83350CD6017
:103430003046BDE8F84000F0BBB8C2185268D20769
:103440000ED4194407F108048368A34270D0C268FF
:10345000DA60936041F001036B606950D3E7704715
:1034600041F00103B1F5007F44F8043C0160CDD385
:10347000B1F5206F4FEA512347D28B0903F1390090
:1034800003F13802C300F818FB580838984258D0A6
:103490005A6822F003028A4202D99B689842F7D107
:1034A000D868C5E9023085603046DD60BDE8F84087
:1034B00000F07EB8C2185268D20763D40B44D0E93A
:1034C0000212CA60916043F001026A603046EB501C
:1034D000BDE8F84000F06CB80B44D10707D454F8AD
:1034E000082CAD1A1344D5E90212CA60916043F06A
:1034F00001026A60274ABD6012689A4298D8264B3A
:1035000030461968FFF7FAFE92E7142B0AD9542BBC
:103510001FD80B0B03F16F0003F16E02C300B2E77B
:10352000194491E703F15C0003F15B02C300AAE7D1
:1035300041F00103C7E90455C5E902446B606950D5
:1035400076E70121921001FA02F279680A437A6063
:10355000A7E7B3F5AA7F06D8CB0B03F1780003F1F8
:103560007702C3008FE740F25452934206D88B0C87
:1035700003F17D0003F17C02C30084E74FF47E7306
:103580007E2280E741F001036B60016050E700BFDD
:103590003C04002048080020F02A0020704700BFAB
:1035A000704700BF0148FFF7F9BF00BFC42A0020E1
:1035B0000148FFF7F5BF00BFC42A0020002238B53C
:1035C000064D044608462A60FDF78EF8431C00D0DD
:1035D00038BD2B68002BFBD0236038BDBC2A0020EF
:1035E0002DE9F047DFF87CA00646DAF8000098469F
:1035F0000F469146FFF7D2FF1B4B1B68D3F848419B
:1036000024B365681F2D26DC5EB96B1C0235DAF821
:103610000000636044F82570FFF7C2FF0020BDE89A
:10362000F087012304EB8501C1F88890D4F8882144
:10363000AB401A43022EC4F88821C1F80881E4D1B6
:10364000D4F88C211343C4F88C31DEE703F5A6745B
:10365000C3F84841D5E7DAF80000FFF7A1FF4FF0C3
:10366000FF30DCE73804002010370008F8B500BF51
:10367000F8BC08BC9E467047F8B500BFF8BC08BC53
:043680009E467047AB
:10368400636C695461736B00626C696E6B54617333
:103694006B0000008C3600080000000000000000F1
:1036A40000000000000000000002000018000000FC
:1036B4000000000000000000843600080000000044
:1036C40000000000000000000000000000020000F4
:1036D40008000000000000000000000000000000DE
:1036E40000000000010203040607080900000000AE
:1036F4000102030449444C4500000000546D72511A
:1037040000000000546D7220537663001000002006
:08371400B132000815020008A3
:04371C00F1010008AF
:103720000024F40001000000AAAAAAAA10000020A8
:1037300000000000FC02002064030020CC030020F5
:103740000000000000000000000000000000000079
:103750000000000000000000000000000000000069
:103760000000000000000000000000000000000059
:103770000000000000000000000000000000000049
:103780000000000000000000000000000000000039
:103790000000000000000000000000000000000029
:1037A0000000000000000000000000000000000019
:1037B0000000000000000000000000000000000009
:1037C00000000000000000000000000000000000F9
:1037D00000000000000000000100000000000000E8
:1037E0000E33CDAB34126DE6ECDE05000B000000AD
:1037F00000000000000000000000000000000000C9
:1038000000000000000000000000000000000000B8
:1038100000000000000000000000000000000000A8
:103820000000000000000000000000000000000098
:103B50000000000000000000C02A0020000000005B
:103B6000000000003C0400203C040020440400202D
:103B7000440400204C0400204C0400205404002085
:103B8000540400205C0400205C0400206404002035
:103B9000640400206C0400206C04002074040020E5
:103BA000740400207C0400207C0400208404002095
:103BB000840400208C0400208C0400209404002045
:103BC000940400209C0400209C040020A4040020F5
:103BD000A4040020AC040020AC040020B4040020A5
:103BE000B4040020BC040020BC040020C404002055
:103BF000C4040020CC040020CC040020D404002005
:103C0000D4040020DC040020DC040020E4040020B4
:103C1000E4040020EC040020EC040020F404002064
:103C2000F4040020FC040020FC0400200405002013
:103C3000040500200C0500200C05002014050020C0
:103C4000140500201C0500201C0500202405002070
:103C5000240500202C0500202C0500203405002020
:103C6000340500203C0500203C05002044050020D0
:103C7000440500204C0500204C0500205405002080
:103C8000540500205C0500205C0500206405002030
:103C9000640500206C0500206C05002074050020E0
:103CA000740500207C0500207C0500208405002090
:103CB000840500208C0500208C0500209405002040
:103CC000940500209C0500209C050020A4050020F0
:103CD000A4050020AC050020AC050020B4050020A0
:103CE000B4050020BC050020BC050020C405002050
:103CF000C4050020CC050020CC050020D405002000
:103D0000D4050020DC050020DC050020E4050020AF
:103D1000E4050020EC050020EC050020F40500205F
:103D2000F4050020FC050020FC050020040600200E
:103D3000040600200C0600200C06002014060020BB
:103D4000140600201C0600201C060020240600206B
:103D5000240600202C0600202C060020340600201B
:103D6000340600203C0600203C06002044060020CB
:103D7000440600204C0600204C060020540600207B
:103D8000540600205C0600205C060020640600202B
:103D9000640600206C0600206C06002074060020DB
:103DA000740600207C0600207C060020840600208B
:103DB000840600208C0600208C060020940600203B
:103DC000940600209C0600209C060020A4060020EB
:103DD000A4060020AC060020AC060020B40600209B
:103DE000B4060020BC060020BC060020C40600204B
:103DF000C4060020CC060020CC060020D4060020FB
:103E0000D4060020DC060020DC060020E4060020AA
:103E1000E4060020EC060020EC060020F40600205A
:103E2000F4060020FC060020FC0600200407002009
:103E3000040700200C0700200C07002014070020B6
:103E4000140700201C0700201C0700202407002066
:103E5000240700202C0700202C0700203407002016
:103E6000340700203C0700203C07002044070020C6
:103E7000440700204C0700204C0700205407002076
:103E8000540700205C0700205C0700206407002026
:103E9000640700206C0700206C07002074070020D6
:103EA000740700207C0700207C0700208407002086
:103EB000840700208C0700208C0700209407002036
:103EC000940700209C0700209C070020A4070020E6
:103ED000A4070020AC070020AC070020B407002096
:103EE000B4070020BC070020BC070020C407002046
:103EF000C4070020CC070020CC070020D4070020F6
:103F0000D4070020DC070020DC070020E4070020A5
:103F1000E4070020EC070020EC070020F407002055
:103F2000F4070020FC070020FC0700200408002004
:103F3000040800200C0800200C08002014080020B1
:103F4000140800201C0800201C0800202408002061
:103F5000240800202C0800202C0800203408002011
:0C3F600034080020FFFFFFFF00000200FB
:04000005080007EDFB
:00000001FF
